:100000000C944E000C9400000C9400000C94000022
:100010000C9400000C9400000C9400000C94000060
:100020000C9400000C9400000C9400000C94000050
:100030000C9400000C9400000C9400000C94000040
:100040000C9400000C9400000C9400000C94000030
:100050000C9400000000A04056313A202530342E88
:100060003266206D560056323A202530342E3266E4
:10007000206D560080C02D4E414E000001002D4ED7
:10008000414E00494E460000040060015400020049
:100090007C017400010080017C000000F894EE27D0
:1000A000ECBBF1E0FBBFEBBFE5BF8DE0A2E0BB27FF
:1000B000ED938A95E9F780E094E0A0E6ED9301974F
:1000C000E9F7E8E8F0E085919591009761F0A59156
:1000D000B59105901590BF01F00105900D92019723
:1000E000E1F7FB01F0CFEFE5EDBFE4E0EEBFC0E6E6
:1000F000D1E00C9489001A931A2FE12FE7B985E219
:100100008A95F1F7369A349BFECF349AE4B1F5B173
:10011000D8C0E0E0EABBEFEFE7BBE0E0E7B9E4E836
:10012000E6B9E0E0E0BFA0E1A3D0A0E098D4E0937E
:100130006401F09365016093660170936701A1E02B
:100140008ED4E0936801F093690160936A01709323
:100150006B019FD4E8E5F0E0FA93EA93E091640143
:10016000F0916501609166017091670197D4E0E0BC
:10017000EA93A0E03FD0ACE6B1E06BD0E0E0EA93D8
:10018000A1E038D086D4E6E6F0E0FA93EA93E09175
:100190006801F091690160916A0170916B017ED4F0
:1001A000ACE6B1E056D0A4EFB1E0D0D7BECFFFCFE0
:1001B0001A931A2FE2B3EF70AE2FE12FE07FEA2BF4
:1001C000E2BB82E18A95F1F7929A82E18A95F1F792
:1001D000929882E18A95F1F774C0AA93A881E8DF2A
:1001E000E881E295E883A881E3DF88EB8A95F1F75F
:1001F000219608951A930A931A2F0A81E12FF0E0AD
:10020000E458FE4FE081E00FAE2FE7DF502E412E85
:100210001981088123960895A2E045D4ACE0DDDF82
:10022000A1E041D4E0E04E2E5E2E08951A931A2FDD
:100230001A3011F0571438F0E0E0EA934394A42DFB
:10024000D9DF1A30F1F15394909AA12FC6DF90981C
:1002500038C022D59D01D9012F5F3F4FEC911E2F51
:10026000E03019F0A12FE2DFF6CF1DD50C949904F0
:100270001A931A2FE1B3E06FE1BB8A9A889A899AA0
:10028000929890989198712EE12FE058E0937E011A
:10029000E12FE054E0937F01A4E1B0E057D707D409
:1002A00006D405D4A0E284DF84E191E00197F1F760
:1002B000A8E293DFA4E091DFA5E88FDFA6E08DDF61
:1002C000ABDF19910895E6D49D015E8112965ED54B
:1002D0003097E1F0D901149659D58F01309759F034
:1002E0000230E0E01E0760F0F80131978F01D9017C
:1002F0001496ED93FC93D9011296E0D33197508375
:10030000D90144D5FF230AF0D9D305C0D901EFEFB5
:10031000FFEFED93FC93C5D427960895D5D3E0E87D
:10032000D8D3AD012A85EE85FF85EF3FAFEFFA0701
:1003300031F45A934A93A6E7B0E097D286C0EF3FD4
:10034000AFE7FA0731F45A934A93A7E7B0E08DD2AA
:100350007CC0AB85A73010F0E6E0EB871B85E12F72
:100360001150E03011F0BAD3FACFC6D344D519F406
:1003700030E0B4D31BC03B85C4D309F008F407C0F8
:10038000ADD3BFD318F0C7D3CBD3FBCF08C0B9D3FD
:1003900028F4C1D3D0D3D5D33150F9CF9FD3ACD328
:1003A000D5D3CFD3AED310F0B6D3BAD310E0EB850C
:1003B000E11728F1D1D3D5D3C9D3D9D3ACD362D6E1
:1003C00051D50E2F5F934F934F5F5F4FE05DAF911D
:1003D000BF91EC93E02FFF27662777277CD5BCD30E
:1003E00003D699D3FBD4AAD5ACD3E12F1F5FE0305D
:1003F000F1F6DA014F5F5F4FEEE2EC93D8CF5F93F7
:100400004F934F5F5F4FE22FAF91BF91EC9330302E
:1004100024F43195DA01EDE202C0DA01EBE2EC936B
:100420004F5F5F4F5F934F93AAD36BD4E05DAF9163
:10043000BF91EC935F934F93A2D38CD4E05DAF91C7
:10044000BF91EC93DA01E0E0EC932BD46096089531
:10045000BA93AA93EF9761971DD410E0FE01E85A72
:10046000FF4F0190F081E02DE887F987FE01EA5AFD
:10047000FF4F0190F081E02DEE83FF83AE81BF81BD
:10048000E0E0F0E0ED93FC93DE01A45ABF4F16D3F9
:100490003197E4912E2FE03009F4AEC1E12FE03026
:1004A00031F4253211F411E001C06ED3A4C1E13062
:1004B000B9F4253211F468D39DC112E0E0E0ED8B70
:1004C00000E02D3211F401E096C12B3219F4EBE279
:1004D000ED8B91C1203219F4E0E2ED8B8CC102C0AA
:1004E000E23039F450E013E0203311F4006883C1A6
:1004F00002C0E33091F4203310F02A3308F007C033
:10050000AAE05A9F502DE22FE0535E0F74C140E0E5
:100510002E3211F414E06FC10FC0E43099F420338F
:1005200010F02A3308F008C00062AAE04A9F402D6C
:10053000E22FE0534E0F5FC12C3619F4026015E034
:100540005AC103C0E53009F056C1E22FE33639F451
:1005500022D328D320D3A481AA932BD34BC1E53433
:1005600011F0E53609F402C0E636B9F528D32CD3EC
:1005700017D431D310D316D3AD85AA2332F0AD8969
:10058000AB3241F0A03261F013C02AD338D423D368
:10059000EDE2ED8B07FF04C0ED89EA930AD308C0B2
:1005A000EE85FF853196EE87FF873197AD89A08371
:1005B00005FF46E0263639F413D306D44A93AB89B7
:1005C000BC89B9D107C00CD3FFD34A932A93AC8915
:1005D000BD89A4DEF4D209D318C0E33729F4DBD2F5
:1005E000E1D208D302D30AC0E037A1F4D4D2DAD2E0
:1005F00001D3AE85BF8552D11E2F08600F774030E2
:1006000011F0411708F001C0142F40E0E0E0EC8B3E
:1006100030E065C0E43611F0E93611F4046002C040
:10062000E53791F4EAE0EC8B01FF07C0E0E0FAEC7B
:100630006AE97BE3E6D21AE01FC0E0E1F7E260E09E
:1006400070E0DFD215E018C0E83511F4086003C08F
:10065000E83709F0CFC0E0E1EC8B01FF07C0E0E034
:10066000F0E060E070E1CDD218E006C0E0E0F0E13B
:1006700060E070E0C6D214E0403011F00F7701C0A6
:1006800041E001FF06C087D28DD29ED2149682D35C
:1006900010C002FF07C07FD285D296D2149676D3BF
:1006A0001DD307C078D27ED28FD214966FD366271F
:1006B0007727EA87FB876C877D8702FF0FC0AD85B0
:1006C000AA232AF48DD2FCD286D2EDE2ED8BED89FD
:1006D000E03019F01F5F4F5F01C00B7F342F00FD2A
:1006E00013C0151710F4351708F00EC007FF08C027
:1006F00002FF04C00B7F2D89115001C020E301C00F
:1007000020E242D25150EDCF141780F4006102FF75
:1007100005C07CD209F0515011504150E0E3EA93FA
:1007200048D2503009F051504150EECF312FEC8972
:10073000E030B1F4303099F003FF06C0EE85FF855C
:100740002591EE87FF8705C0AE85BF852D91AE87C9
:10075000BF871AD2503009F051503150EBCF41C011
:1007600067D2D4D22E2F2A3030F003FF02C0295C8A
:1007700001C0295A01C0205D04FD1DC0213348F489
:1007800060D2A130E0E0BE07E0E08E07E0E09E0727
:1007900009F40BC0431740F4531710F000FF01C0D9
:1007A0000EC020E207FF07C020E3006102FF03C084
:1007B0002DD209F05150E8D1503009F0515031504C
:1007C00037D2D4D208D2EC893CD2FF2766277727CC
:1007D0009DD217D2E889F9896A897B890CD309F0FF
:1007E000BFCF00FF07C0503029F05150E0E2EA933C
:1007F000E0D1F9CF10E048CEAE81BF81ED91FD91FF
:1008000050D2EF966F960895FF92F82E269742D217
:10081000FE014ED246855785042E052A19F4EFEFC6
:10082000FFEF1FC0DE01189647D28D014887598718
:10083000E0E0EA87EB87DE011C963ED2ED91FD9168
:10084000FA93EA931A930A93E3E6F1E0FA93EA93B0
:10085000DE011C96FDDD9F01A885B985E0E0EC93E3
:10086000F9011FD22C96FF900895BA93AA93E991AB
:10087000F991A991B991CD0105900D920020E1F770
:10088000FC010895BA93AA93A991B991EE27FF2785
:100890006D91662311F03196FBCF0895BA93AA9318
:1008A000AA27BB27E991F9910590002011F0119634
:1008B000FBCFFD0108958DD27B816A81F981E881AA
:1008C00077FB770F67FD7160972F9E5781F078F067
:1008D000983190F4AA27BB27882708948795B79565
:1008E000A7959A95D1F7EA23FB23682305C0E894DE
:1008F0007727EE27FF2766276F77769508F46068DD
:1009000077F9A991B99189919991EA17FB0768073D
:10091000790797FB08955DD24DD2CDDF50D211F407
:1009200095D107C0EEF792D1A0E0B0E080E89FE358
:1009300005D324960895C8D0E0E0CBD09D015A8518
:10094000ED85FE85EF3FAFEFFA0731F43A932A9336
:10095000AEE7B0E08ADF80C0EF3FAFE7FA0731F4DF
:100960003A932A93AFE7B0E080DF76C0AE85AA2342
:1009700042F46ED144D271D1D9012F5F3F4FEDE2E5
:10098000EC93573008F056E0152FE12F1150E0306E
:1009900021F0E2D0E6D066D1F8CF69D1D6D25DD1D0
:1009A00010E0E0E0F0E060E87FE35CD160D1AED33E
:1009B00058F094D01F5F173230F03A932A93A3E88F
:1009C000B0E053DF49C0F2CF103031F4D9012F5FCE
:1009D0003F4FE0E3EC931DC0E12F1150E030C9F030
:1009E000BBD0BFD0B3D0C3D04BD14CD33BD20E2F52
:1009F0003F932F934AD1AF91BF91EC93E02FF0E05A
:100A0000ABD06CD168D2F0D23BD1E8D197D225D10E
:100A1000E3CF5030F1F0D9012F5F3F4FEEE2EC937E
:100A2000E52F5150E030A9F02BD185D016D110D14F
:100A300019D20E2F3F932F9328D1AF91BF91EC93F2
:100A4000E02FF0E01DD14AD146D2C8D177D205D1EE
:100A5000E7CFD901E0E0EC9324D12F9608954BDB4A
:100A60006627772738D2DF01CB01E0E0F0E060E8CD
:100A700074E408D3A0916001B0916101809162019A
:100A800090916301B1D2A0E0B0E08AE794E4ACD2E7
:100A90000895ECE6F1E0FA93EA93089595D184E0A5
:100AA000B3DE2896089599DBA3E0B0E04FC3A0E33E
:100AB0007FDB84E191E00197F1F70895ED91FD91DD
:100AC0003196FE93EE9308952497E0E0E883E9835E
:100AD0000895EA83EFE3EB83DDD00895AE81BF8113
:100AE00088859985E0E0F0E060E271E47DD2EE83F4
:100AF000FF83688779870895EC85FD856E857F85FE
:100B00000895EE81FF8168857985AC85BD858E85E8
:100B10009F85FCD20895AC85BD858E859F850895FF
:100B2000EDECFCEC6CEC7DE35FD2EC87FD876E872F
:100B30007F873F5F0895E0E0F0E060E271E454D227
:100B40000895EC87FD876E877F870895A0E0B0E069
:100B500080E09FE3FAD10895AE81BF8188859985B1
:100B60000895EDECFCEC6CEC7DE33ED20895DF01E2
:100B7000CB01D1DEEE83FF836887798708954F5FCD
:100B80005F4FA32FEAE008952A93AF81B885E985E6
:100B9000FA8509950895FE01E65AFF4F0190F0810C
:100BA000E02D08953497DE01A65ABF4FED93FC93D4
:100BB0000895AF81B885E985FA8509950895FE0104
:100BC0007696EE87FF870895DE01A65ABF4F0D90F7
:100BD000BC91A02D0895EA87FB876C877D870895D7
:100BE000EA85FB856C857D850895AE85BF854ADEE7
:100BF0001E2F0895E9DF1496ED91FD91EE87FF8792
:100C00000895E88BF98B6A8B7B8B08950B7FED89B8
:100C1000EA93DE01A95ABF4F0D90BC91A02DFE01B1
:100C2000E75AFF4F0190F081E02D0995503008956B
:100C3000E889F9896A897B89AA85BB858C859D8528
:100C40000895A889B9898A899B890895AED00895A5
:100C5000EB85FC856D857E850895EB87FC876D8728
:100C60007E870895EE83FF83688779870895EE81F4
:100C7000FF8168857985AB85BC858D859E850895C6
:100C8000AB85BC858D859E8508952F5F3F4FE02FF6
:100C9000E05D08955A934A933A932A931A930A93DC
:100CA00008955D814C813B812A81198108810895D5
:100CB0000024EF0DF01D08950024AF0DB01D089520
:100CC000F09560957095E195FF4F6F4F7F4F0895B8
:100CD000FE2FFF0FFF0B6F2F7F2F08956F2F660FD3
:100CE000660B762F0895002498E0AA0F001C0E1AB8
:100CF00010F40E0E01C0A1609A95B9F7EA2FA02D4D
:100D0000089538D0F0DF0EF4E19508953F934F93A6
:100D10005F9300241124A00130E2AA0FBB1F881F9B
:100D2000991F001C111C441F551F0E1A1F0A460B49
:100D3000570B28F40E0E1F1E461F571F01C0A1603F
:100D40003A9559F7FD01BC01D001CA015F914F915D
:100D50003F910895E894A7FF02C0A1956894E7FD2C
:100D6000E195C1DFEA2F0EF4E1950895CFDFFD0193
:100D7000BC010895E894E7FF02C0E1956894A7FFDD
:100D800004C0A19500F8039400FA0895ED91FC9138
:100D900011970895ED91FD916D917C9113970895B0
:100DA000ED91FD916D917D910895E881F9816A81C0
:100DB0007B810895A881B9818A819B810895E88308
:100DC000F9836A837B8308957A936A93FA93EA930B
:100DD00008959A938A93BA93AA930895182E862F0A
:100DE000612D192E972F712D1B2EBF2FF12D1A2E2D
:100DF000AE2FE12D089530976040704008953097F0
:100E00006040704009F070580895552342F45038FE
:100E100011F4E0FF04C03196691F791F6BF050E8B0
:100E2000572711F45F93CFC05F3F31F0660F000C7E
:100E300057956795752F08955F9300200AF0CEC0EF
:100E4000C7C050E8192E1522880F991F9527550FF6
:100E5000879550E8072E0522660F771F7527550FD7
:100E600067950895689401C0E8945F93F2DF703845
:100E700018F07F3F08F4A7C056E1571BAAF451951C
:100E800058300EF4593030F0EFEFFFEF6FEF7FE79F
:100E900077F91AC077275523B9F0EE0FFF1F661FA9
:100EA000771F5A95D1F710C07727583028F0EF2FC9
:100EB000F62F672F5850F9CF552331F07695679567
:100EC000F795E7955A95D1F700200AF4F9DE5F917E
:100ED0000895689401C0E894309760407040B1F084
:100EE000002426F0772312F40094EADE172E7EE128
:100EF000112032F07A95EE0FFF1F661F111CF9CFFB
:100F0000EF2FF62F612D5F938ADF5F9108954F9346
:100F1000AF01FD01DA01AB01BC01CA01402D012C7A
:100F2000142E4F910895EA0FFB1F681F0895E09556
:100F3000F0956095EF5FFF4F6F4F08955F9381DFEE
:100F4000903871F150E8152604C05F937ADF90382D
:100F500039F1703821F1572F591B2BF112F4D7DFDB
:100F6000FACF583118F0AA27BB278827583028F025
:100F7000AB2FB82F88275850F9CF552329F08695E5
:100F8000B795A7955A95D9F7502D512572F0CBDF1B
:100F900038F46795F795E795739513F41FC0B7DF9D
:100FA0003EDF5F910895D8F7FBCFEA1BFB0B680B80
:100FB00051F010F40094BBDF662392F3EE0FFF1F95
:100FC000661F7A95CBF7EE27FF27BF015F91089543
:100FD000EFEFFFEF6FE77FEF5F910895EFEFFFEF28
:100FE0006FE77FE75F9108955F932BDF703859F3C8
:100FF000903849F301240894791F23F424F3002046
:101000003AF3ECCF0F921F932F933F934F931127F7
:1010100022279927689FA0018F9F302D410D591FCE
:101020006B9F300D411D591F8E9F27D0BF9F25D02C
:101030006A9F23D0BE9F1DD0AF9F1BD0AE9F110DC6
:10104000291F391F491F591FE32FF42F652F522FD6
:101050004F913F912F911F910F9066232AF0550FCA
:10106000EE1FFF1F661F02C073954BF2CEDE5F912D
:101070000895100D211D391F02C0200D311D491F7B
:10108000591F08955F93DDDE703821F411200AF4B2
:101090009FCFA4CF903809F496CF01240894970BE2
:1010A0001BF4D4F30020F3CF792F1F932F933F939A
:1010B0004F931124112722273327A90190E2AE175D
:1010C000BF078607410730F0AE1BBF0B860B410BF5
:1010D000089401C08894551F221F331F111CAA1F9A
:1010E000BB1F881F441F9A9551F7F901612D4F913D
:1010F0003F912F911F91662332F0550FEE1FFF1F76
:10110000661F7A954BF281DE5F91089599239AF0DC
:10111000772342F0971748F029F4AE17BF078607E8
:1011200020F031F098948894089598940894089544
:101130001894889408957723C2F7971798F3A9F71E
:10114000EA17FB07680788F399F3ECCF109639F09C
:10115000A8958DEC9AE00197F1F71197C9F70895DA
:00000001FF
